{
  "contractName": "PepeswapV2Router02",
  "abi": [
    {
      "inputs": [
        {
          "internalType": "address",
          "name": "_factory",
          "type": "address"
        },
        {
          "internalType": "address",
          "name": "_WBNB",
          "type": "address"
        }
      ],
      "stateMutability": "nonpayable",
      "type": "constructor"
    },
    {
      "inputs": [],
      "name": "WBNB",
      "outputs": [
        {
          "internalType": "address",
          "name": "",
          "type": "address"
        }
      ],
      "stateMutability": "view",
      "type": "function"
    },
    {
      "inputs": [],
      "name": "factory",
      "outputs": [
        {
          "internalType": "address",
          "name": "",
          "type": "address"
        }
      ],
      "stateMutability": "view",
      "type": "function"
    },
    {
      "stateMutability": "payable",
      "type": "receive"
    },
    {
      "inputs": [
        {
          "internalType": "address",
          "name": "tokenA",
          "type": "address"
        },
        {
          "internalType": "address",
          "name": "tokenB",
          "type": "address"
        },
        {
          "internalType": "uint256",
          "name": "amountADesired",
          "type": "uint256"
        },
        {
          "internalType": "uint256",
          "name": "amountBDesired",
          "type": "uint256"
        },
        {
          "internalType": "uint256",
          "name": "amountAMin",
          "type": "uint256"
        },
        {
          "internalType": "uint256",
          "name": "amountBMin",
          "type": "uint256"
        },
        {
          "internalType": "address",
          "name": "to",
          "type": "address"
        },
        {
          "internalType": "uint256",
          "name": "deadline",
          "type": "uint256"
        }
      ],
      "name": "addLiquidity",
      "outputs": [
        {
          "internalType": "uint256",
          "name": "amountA",
          "type": "uint256"
        },
        {
          "internalType": "uint256",
          "name": "amountB",
          "type": "uint256"
        },
        {
          "internalType": "uint256",
          "name": "liquidity",
          "type": "uint256"
        }
      ],
      "stateMutability": "nonpayable",
      "type": "function"
    },
    {
      "inputs": [
        {
          "internalType": "address",
          "name": "token",
          "type": "address"
        },
        {
          "internalType": "uint256",
          "name": "amountTokenDesired",
          "type": "uint256"
        },
        {
          "internalType": "uint256",
          "name": "amountTokenMin",
          "type": "uint256"
        },
        {
          "internalType": "uint256",
          "name": "amountBNBMin",
          "type": "uint256"
        },
        {
          "internalType": "address",
          "name": "to",
          "type": "address"
        },
        {
          "internalType": "uint256",
          "name": "deadline",
          "type": "uint256"
        }
      ],
      "name": "addLiquidityBNB",
      "outputs": [
        {
          "internalType": "uint256",
          "name": "amountToken",
          "type": "uint256"
        },
        {
          "internalType": "uint256",
          "name": "amountBNB",
          "type": "uint256"
        },
        {
          "internalType": "uint256",
          "name": "liquidity",
          "type": "uint256"
        }
      ],
      "stateMutability": "payable",
      "type": "function"
    },
    {
      "inputs": [
        {
          "internalType": "address",
          "name": "tokenA",
          "type": "address"
        },
        {
          "internalType": "address",
          "name": "tokenB",
          "type": "address"
        },
        {
          "internalType": "uint256",
          "name": "liquidity",
          "type": "uint256"
        },
        {
          "internalType": "uint256",
          "name": "amountAMin",
          "type": "uint256"
        },
        {
          "internalType": "uint256",
          "name": "amountBMin",
          "type": "uint256"
        },
        {
          "internalType": "address",
          "name": "to",
          "type": "address"
        },
        {
          "internalType": "uint256",
          "name": "deadline",
          "type": "uint256"
        }
      ],
      "name": "removeLiquidity",
      "outputs": [
        {
          "internalType": "uint256",
          "name": "amountA",
          "type": "uint256"
        },
        {
          "internalType": "uint256",
          "name": "amountB",
          "type": "uint256"
        }
      ],
      "stateMutability": "nonpayable",
      "type": "function"
    },
    {
      "inputs": [
        {
          "internalType": "address",
          "name": "token",
          "type": "address"
        },
        {
          "internalType": "uint256",
          "name": "liquidity",
          "type": "uint256"
        },
        {
          "internalType": "uint256",
          "name": "amountTokenMin",
          "type": "uint256"
        },
        {
          "internalType": "uint256",
          "name": "amountBNBMin",
          "type": "uint256"
        },
        {
          "internalType": "address",
          "name": "to",
          "type": "address"
        },
        {
          "internalType": "uint256",
          "name": "deadline",
          "type": "uint256"
        }
      ],
      "name": "removeLiquidityBNB",
      "outputs": [
        {
          "internalType": "uint256",
          "name": "amountToken",
          "type": "uint256"
        },
        {
          "internalType": "uint256",
          "name": "amountBNB",
          "type": "uint256"
        }
      ],
      "stateMutability": "nonpayable",
      "type": "function"
    },
    {
      "inputs": [
        {
          "internalType": "address",
          "name": "tokenA",
          "type": "address"
        },
        {
          "internalType": "address",
          "name": "tokenB",
          "type": "address"
        },
        {
          "internalType": "uint256",
          "name": "liquidity",
          "type": "uint256"
        },
        {
          "internalType": "uint256",
          "name": "amountAMin",
          "type": "uint256"
        },
        {
          "internalType": "uint256",
          "name": "amountBMin",
          "type": "uint256"
        },
        {
          "internalType": "address",
          "name": "to",
          "type": "address"
        },
        {
          "internalType": "uint256",
          "name": "deadline",
          "type": "uint256"
        },
        {
          "internalType": "bool",
          "name": "approveMax",
          "type": "bool"
        },
        {
          "internalType": "uint8",
          "name": "v",
          "type": "uint8"
        },
        {
          "internalType": "bytes32",
          "name": "r",
          "type": "bytes32"
        },
        {
          "internalType": "bytes32",
          "name": "s",
          "type": "bytes32"
        }
      ],
      "name": "removeLiquidityWithPermit",
      "outputs": [
        {
          "internalType": "uint256",
          "name": "amountA",
          "type": "uint256"
        },
        {
          "internalType": "uint256",
          "name": "amountB",
          "type": "uint256"
        }
      ],
      "stateMutability": "nonpayable",
      "type": "function"
    },
    {
      "inputs": [
        {
          "internalType": "address",
          "name": "token",
          "type": "address"
        },
        {
          "internalType": "uint256",
          "name": "liquidity",
          "type": "uint256"
        },
        {
          "internalType": "uint256",
          "name": "amountTokenMin",
          "type": "uint256"
        },
        {
          "internalType": "uint256",
          "name": "amountBNBMin",
          "type": "uint256"
        },
        {
          "internalType": "address",
          "name": "to",
          "type": "address"
        },
        {
          "internalType": "uint256",
          "name": "deadline",
          "type": "uint256"
        },
        {
          "internalType": "bool",
          "name": "approveMax",
          "type": "bool"
        },
        {
          "internalType": "uint8",
          "name": "v",
          "type": "uint8"
        },
        {
          "internalType": "bytes32",
          "name": "r",
          "type": "bytes32"
        },
        {
          "internalType": "bytes32",
          "name": "s",
          "type": "bytes32"
        }
      ],
      "name": "removeLiquidityBNBWithPermit",
      "outputs": [
        {
          "internalType": "uint256",
          "name": "amountToken",
          "type": "uint256"
        },
        {
          "internalType": "uint256",
          "name": "amountBNB",
          "type": "uint256"
        }
      ],
      "stateMutability": "nonpayable",
      "type": "function"
    },
    {
      "inputs": [
        {
          "internalType": "address",
          "name": "token",
          "type": "address"
        },
        {
          "internalType": "uint256",
          "name": "liquidity",
          "type": "uint256"
        },
        {
          "internalType": "uint256",
          "name": "amountTokenMin",
          "type": "uint256"
        },
        {
          "internalType": "uint256",
          "name": "amountBNBMin",
          "type": "uint256"
        },
        {
          "internalType": "address",
          "name": "to",
          "type": "address"
        },
        {
          "internalType": "uint256",
          "name": "deadline",
          "type": "uint256"
        }
      ],
      "name": "removeLiquidityBNBSupportingFeeOnTransferTokens",
      "outputs": [
        {
          "internalType": "uint256",
          "name": "amountBNB",
          "type": "uint256"
        }
      ],
      "stateMutability": "nonpayable",
      "type": "function"
    },
    {
      "inputs": [
        {
          "internalType": "address",
          "name": "token",
          "type": "address"
        },
        {
          "internalType": "uint256",
          "name": "liquidity",
          "type": "uint256"
        },
        {
          "internalType": "uint256",
          "name": "amountTokenMin",
          "type": "uint256"
        },
        {
          "internalType": "uint256",
          "name": "amountBNBMin",
          "type": "uint256"
        },
        {
          "internalType": "address",
          "name": "to",
          "type": "address"
        },
        {
          "internalType": "uint256",
          "name": "deadline",
          "type": "uint256"
        },
        {
          "internalType": "bool",
          "name": "approveMax",
          "type": "bool"
        },
        {
          "internalType": "uint8",
          "name": "v",
          "type": "uint8"
        },
        {
          "internalType": "bytes32",
          "name": "r",
          "type": "bytes32"
        },
        {
          "internalType": "bytes32",
          "name": "s",
          "type": "bytes32"
        }
      ],
      "name": "removeLiquidityBNBWithPermitSupportingFeeOnTransferTokens",
      "outputs": [
        {
          "internalType": "uint256",
          "name": "amountBNB",
          "type": "uint256"
        }
      ],
      "stateMutability": "nonpayable",
      "type": "function"
    },
    {
      "inputs": [
        {
          "internalType": "uint256",
          "name": "amountIn",
          "type": "uint256"
        },
        {
          "internalType": "uint256",
          "name": "amountOutMin",
          "type": "uint256"
        },
        {
          "internalType": "address[]",
          "name": "path",
          "type": "address[]"
        },
        {
          "internalType": "address",
          "name": "to",
          "type": "address"
        },
        {
          "internalType": "uint256",
          "name": "deadline",
          "type": "uint256"
        }
      ],
      "name": "swapExactTokensForTokens",
      "outputs": [
        {
          "internalType": "uint256[]",
          "name": "amounts",
          "type": "uint256[]"
        }
      ],
      "stateMutability": "nonpayable",
      "type": "function"
    },
    {
      "inputs": [
        {
          "internalType": "uint256",
          "name": "amountOut",
          "type": "uint256"
        },
        {
          "internalType": "uint256",
          "name": "amountInMax",
          "type": "uint256"
        },
        {
          "internalType": "address[]",
          "name": "path",
          "type": "address[]"
        },
        {
          "internalType": "address",
          "name": "to",
          "type": "address"
        },
        {
          "internalType": "uint256",
          "name": "deadline",
          "type": "uint256"
        }
      ],
      "name": "swapTokensForExactTokens",
      "outputs": [
        {
          "internalType": "uint256[]",
          "name": "amounts",
          "type": "uint256[]"
        }
      ],
      "stateMutability": "nonpayable",
      "type": "function"
    },
    {
      "inputs": [
        {
          "internalType": "uint256",
          "name": "amountOutMin",
          "type": "uint256"
        },
        {
          "internalType": "address[]",
          "name": "path",
          "type": "address[]"
        },
        {
          "internalType": "address",
          "name": "to",
          "type": "address"
        },
        {
          "internalType": "uint256",
          "name": "deadline",
          "type": "uint256"
        }
      ],
      "name": "swapExactBNBForTokens",
      "outputs": [
        {
          "internalType": "uint256[]",
          "name": "amounts",
          "type": "uint256[]"
        }
      ],
      "stateMutability": "payable",
      "type": "function"
    },
    {
      "inputs": [
        {
          "internalType": "uint256",
          "name": "amountOut",
          "type": "uint256"
        },
        {
          "internalType": "uint256",
          "name": "amountInMax",
          "type": "uint256"
        },
        {
          "internalType": "address[]",
          "name": "path",
          "type": "address[]"
        },
        {
          "internalType": "address",
          "name": "to",
          "type": "address"
        },
        {
          "internalType": "uint256",
          "name": "deadline",
          "type": "uint256"
        }
      ],
      "name": "swapTokensForExactBNB",
      "outputs": [
        {
          "internalType": "uint256[]",
          "name": "amounts",
          "type": "uint256[]"
        }
      ],
      "stateMutability": "nonpayable",
      "type": "function"
    },
    {
      "inputs": [
        {
          "internalType": "uint256",
          "name": "amountIn",
          "type": "uint256"
        },
        {
          "internalType": "uint256",
          "name": "amountOutMin",
          "type": "uint256"
        },
        {
          "internalType": "address[]",
          "name": "path",
          "type": "address[]"
        },
        {
          "internalType": "address",
          "name": "to",
          "type": "address"
        },
        {
          "internalType": "uint256",
          "name": "deadline",
          "type": "uint256"
        }
      ],
      "name": "swapExactTokensForBNB",
      "outputs": [
        {
          "internalType": "uint256[]",
          "name": "amounts",
          "type": "uint256[]"
        }
      ],
      "stateMutability": "nonpayable",
      "type": "function"
    },
    {
      "inputs": [
        {
          "internalType": "uint256",
          "name": "amountOut",
          "type": "uint256"
        },
        {
          "internalType": "address[]",
          "name": "path",
          "type": "address[]"
        },
        {
          "internalType": "address",
          "name": "to",
          "type": "address"
        },
        {
          "internalType": "uint256",
          "name": "deadline",
          "type": "uint256"
        }
      ],
      "name": "swapBNBForExactTokens",
      "outputs": [
        {
          "internalType": "uint256[]",
          "name": "amounts",
          "type": "uint256[]"
        }
      ],
      "stateMutability": "payable",
      "type": "function"
    },
    {
      "inputs": [
        {
          "internalType": "uint256",
          "name": "amountIn",
          "type": "uint256"
        },
        {
          "internalType": "uint256",
          "name": "amountOutMin",
          "type": "uint256"
        },
        {
          "internalType": "address[]",
          "name": "path",
          "type": "address[]"
        },
        {
          "internalType": "address",
          "name": "to",
          "type": "address"
        },
        {
          "internalType": "uint256",
          "name": "deadline",
          "type": "uint256"
        }
      ],
      "name": "swapExactTokensForTokensSupportingFeeOnTransferTokens",
      "outputs": [],
      "stateMutability": "nonpayable",
      "type": "function"
    },
    {
      "inputs": [
        {
          "internalType": "uint256",
          "name": "amountOutMin",
          "type": "uint256"
        },
        {
          "internalType": "address[]",
          "name": "path",
          "type": "address[]"
        },
        {
          "internalType": "address",
          "name": "to",
          "type": "address"
        },
        {
          "internalType": "uint256",
          "name": "deadline",
          "type": "uint256"
        }
      ],
      "name": "swapExactBNBForTokensSupportingFeeOnTransferTokens",
      "outputs": [],
      "stateMutability": "payable",
      "type": "function"
    },
    {
      "inputs": [
        {
          "internalType": "uint256",
          "name": "amountIn",
          "type": "uint256"
        },
        {
          "internalType": "uint256",
          "name": "amountOutMin",
          "type": "uint256"
        },
        {
          "internalType": "address[]",
          "name": "path",
          "type": "address[]"
        },
        {
          "internalType": "address",
          "name": "to",
          "type": "address"
        },
        {
          "internalType": "uint256",
          "name": "deadline",
          "type": "uint256"
        }
      ],
      "name": "swapExactTokensForBNBSupportingFeeOnTransferTokens",
      "outputs": [],
      "stateMutability": "nonpayable",
      "type": "function"
    },
    {
      "inputs": [
        {
          "internalType": "uint256",
          "name": "amountA",
          "type": "uint256"
        },
        {
          "internalType": "uint256",
          "name": "reserveA",
          "type": "uint256"
        },
        {
          "internalType": "uint256",
          "name": "reserveB",
          "type": "uint256"
        }
      ],
      "name": "quote",
      "outputs": [
        {
          "internalType": "uint256",
          "name": "amountB",
          "type": "uint256"
        }
      ],
      "stateMutability": "pure",
      "type": "function"
    },
    {
      "inputs": [
        {
          "internalType": "uint256",
          "name": "amountIn",
          "type": "uint256"
        },
        {
          "internalType": "uint256",
          "name": "reserveIn",
          "type": "uint256"
        },
        {
          "internalType": "uint256",
          "name": "reserveOut",
          "type": "uint256"
        }
      ],
      "name": "getAmountOut",
      "outputs": [
        {
          "internalType": "uint256",
          "name": "amountOut",
          "type": "uint256"
        }
      ],
      "stateMutability": "pure",
      "type": "function"
    },
    {
      "inputs": [
        {
          "internalType": "uint256",
          "name": "amountOut",
          "type": "uint256"
        },
        {
          "internalType": "uint256",
          "name": "reserveIn",
          "type": "uint256"
        },
        {
          "internalType": "uint256",
          "name": "reserveOut",
          "type": "uint256"
        }
      ],
      "name": "getAmountIn",
      "outputs": [
        {
          "internalType": "uint256",
          "name": "amountIn",
          "type": "uint256"
        }
      ],
      "stateMutability": "pure",
      "type": "function"
    },
    {
      "inputs": [
        {
          "internalType": "uint256",
          "name": "amountIn",
          "type": "uint256"
        },
        {
          "internalType": "address[]",
          "name": "path",
          "type": "address[]"
        }
      ],
      "name": "getAmountsOut",
      "outputs": [
        {
          "internalType": "uint256[]",
          "name": "amounts",
          "type": "uint256[]"
        }
      ],
      "stateMutability": "view",
      "type": "function"
    },
    {
      "inputs": [
        {
          "internalType": "uint256",
          "name": "amountOut",
          "type": "uint256"
        },
        {
          "internalType": "address[]",
          "name": "path",
          "type": "address[]"
        }
      ],
      "name": "getAmountsIn",
      "outputs": [
        {
          "internalType": "uint256[]",
          "name": "amounts",
          "type": "uint256[]"
        }
      ],
      "stateMutability": "view",
      "type": "function"
    }
  ],
  "bytecode": "0x60c060405234801561001057600080fd5b506040516200476d3803806200476d8339818101604052604081101561003557600080fd5b5080516020909101516001600160601b0319606092831b8116608052911b1660a05260805160601c60a05160601c6145e8620001856000398061012f5280610e5752806111e4528061127a52806112ee52806117d9528061196e5280611a4c5280611b745280611cc75280611d4f5280611fd252806120385280612183528061220b528061238a528061243e52806127bb528061289752806129755280612a475280612bdc5280612c175280612e235280612e795280612ead5280612f21525080610c835280610cbc5280610e35528061100552806110e05280611320528061161052806118685280611a2a5280611c085280611d815280611f1352806120cc528061223d528061250e5280612722528061274b5280612ad65280612d085280612e57528061366452806136a7528061384952806139bf5280613ffc52806140b5528061416852506145e86000f3fe60806040526004361061011f5760003560e01c8063054d50d41461015d5780631f00ca74146101a55780632195995c146102aa57806334a0772d1461034157806338ed1739146103b457806350e27df31461044a5780635c11d795146104ce5780635d616c5b14610564578063685a0a34146105fa5780638332a9631461066d57806385f8c259146106f15780638803dbee146107275780638dd95002146107bd5780639cf68911146107ee578063ad615dec14610872578063b7e65949146108a8578063baa2abde146108fb578063c45a015514610958578063d06ca61f1461096d578063d46d2f8314610a22578063d67b571e14610ab8578063e058848814610b4e578063e8e3370014610ba1578063eaaed44214610c2157610158565b3661015857336001600160a01b037f0000000000000000000000000000000000000000000000000000000000000000161461015657fe5b005b600080fd5b34801561016957600080fd5b506101936004803603606081101561018057600080fd5b5080359060208101359060400135610c67565b60408051918252519081900360200190f35b3480156101b157600080fd5b5061025a600480360360408110156101c857600080fd5b81359190810190604081016020820135600160201b8111156101e957600080fd5b8201836020820111156101fb57600080fd5b803590602001918460208302840111600160201b8311171561021c57600080fd5b919080806020026020016040519081016040528093929190818152602001838360200280828437600092019190915250929550610c7c945050505050565b60408051602080825283518183015283519192839290830191858101910280838360005b8381101561029657818101518382015260200161027e565b505050509050019250505060405180910390f35b3480156102b657600080fd5b5061032860048036036101608110156102ce57600080fd5b506001600160a01b038135811691602081013582169160408201359160608101359160808201359160a08101359091169060c08101359060e081013515159060ff6101008201351690610120810135906101400135610cb2565b6040805192835260208301919091528051918290030190f35b34801561034d57600080fd5b50610328600480360361014081101561036557600080fd5b506001600160a01b0381358116916020810135916040820135916060810135916080820135169060a08101359060c081013515159060ff60e08201351690610100810135906101200135610e2b565b3480156103c057600080fd5b5061025a600480360360a08110156103d757600080fd5b813591602081013591810190606081016040820135600160201b8111156103fd57600080fd5b82018360208201111561040f57600080fd5b803590602001918460208302840111600160201b8311171561043057600080fd5b91935091506001600160a01b038135169060200135610fbe565b6101566004803603608081101561046057600080fd5b81359190810190604081016020820135600160201b81111561048157600080fd5b82018360208201111561049357600080fd5b803590602001918460208302840111600160201b831117156104b457600080fd5b91935091506001600160a01b0381351690602001356111a2565b3480156104da57600080fd5b50610156600480360360a08110156104f157600080fd5b813591602081013591810190606081016040820135600160201b81111561051757600080fd5b82018360208201111561052957600080fd5b803590602001918460208302840111600160201b8311171561054a57600080fd5b91935091506001600160a01b0381351690602001356115aa565b34801561057057600080fd5b5061025a600480360360a081101561058757600080fd5b813591602081013591810190606081016040820135600160201b8111156105ad57600080fd5b8201836020820111156105bf57600080fd5b803590602001918460208302840111600160201b831117156105e057600080fd5b91935091506001600160a01b03813516906020013561178d565b34801561060657600080fd5b50610193600480360361014081101561061e57600080fd5b506001600160a01b0381358116916020810135916040820135916060810135916080820135169060a08101359060c081013515159060ff60e08201351690610100810135906101200135611a22565b61025a6004803603608081101561068357600080fd5b81359190810190604081016020820135600160201b8111156106a457600080fd5b8201836020820111156106b657600080fd5b803590602001918460208302840111600160201b831117156106d757600080fd5b91935091506001600160a01b038135169060200135611b30565b3480156106fd57600080fd5b506101936004803603606081101561071457600080fd5b5080359060208101359060400135611ebf565b34801561073357600080fd5b5061025a600480360360a081101561074a57600080fd5b813591602081013591810190606081016040820135600160201b81111561077057600080fd5b82018360208201111561078257600080fd5b803590602001918460208302840111600160201b831117156107a357600080fd5b91935091506001600160a01b038135169060200135611ecc565b3480156107c957600080fd5b506107d2611fd0565b604080516001600160a01b039092168252519081900360200190f35b61025a6004803603608081101561080457600080fd5b81359190810190604081016020820135600160201b81111561082557600080fd5b82018360208201111561083757600080fd5b803590602001918460208302840111600160201b8311171561085857600080fd5b91935091506001600160a01b038135169060200135611ff4565b34801561087e57600080fd5b506101936004803603606081101561089557600080fd5b5080359060208101359060400135612335565b3480156108b457600080fd5b50610193600480360360c08110156108cb57600080fd5b506001600160a01b0381358116916020810135916040820135916060810135916080820135169060a00135612342565b34801561090757600080fd5b50610328600480360360e081101561091e57600080fd5b506001600160a01b038135811691602081013582169160408201359160608101359160808201359160a08101359091169060c001356124c4565b34801561096457600080fd5b506107d2612720565b34801561097957600080fd5b5061025a6004803603604081101561099057600080fd5b81359190810190604081016020820135600160201b8111156109b157600080fd5b8201836020820111156109c357600080fd5b803590602001918460208302840111600160201b831117156109e457600080fd5b919080806020026020016040519081016040528093929190818152602001838360200280828437600092019190915250929550612744945050505050565b348015610a2e57600080fd5b50610156600480360360a0811015610a4557600080fd5b813591602081013591810190606081016040820135600160201b811115610a6b57600080fd5b820183602082011115610a7d57600080fd5b803590602001918460208302840111600160201b83111715610a9e57600080fd5b91935091506001600160a01b038135169060200135612771565b348015610ac457600080fd5b5061025a600480360360a0811015610adb57600080fd5b813591602081013591810190606081016040820135600160201b811115610b0157600080fd5b820183602082011115610b1357600080fd5b803590602001918460208302840111600160201b83111715610b3457600080fd5b91935091506001600160a01b0381351690602001356129fb565b348015610b5a57600080fd5b50610328600480360360c0811015610b7157600080fd5b506001600160a01b0381358116916020810135916040820135916060810135916080820135169060a00135612b93565b348015610bad57600080fd5b50610c036004803603610100811015610bc557600080fd5b506001600160a01b038135811691602081013582169160408201359160608101359160808201359160a08101359160c0820135169060e00135612ca9565b60408051938452602084019290925282820152519081900360600190f35b610c03600480360360c0811015610c3757600080fd5b506001600160a01b0381358116916020810135916040820135916060810135916080820135169060a00135612dd8565b6000610c74848484613067565b949350505050565b6060610ca97f0000000000000000000000000000000000000000000000000000000000000000848461313f565b90505b92915050565b6000806000610ce27f00000000000000000000000000000000000000000000000000000000000000008f8f613279565b9050600087610cf1578c610cf5565b6000195b60408051636eb1769f60e11b8152336004820152306024820152905191925082916001600160a01b0385169163dd62ed3e916044808301926020929190829003018186803b158015610d4657600080fd5b505afa158015610d5a573d6000803e3d6000fd5b505050506040513d6020811015610d7057600080fd5b505114610e02576040805163d505accf60e01b815233600482015230602482015260448101839052606481018b905260ff8916608482015260a4810188905260c4810187905290516001600160a01b0384169163d505accf9160e480830192600092919082900301818387803b158015610de957600080fd5b505af1158015610dfd573d6000803e3d6000fd5b505050505b610e118f8f8f8f8f8f8f6124c4565b809450819550505050509b509b9950505050505050505050565b6000806000610e7b7f00000000000000000000000000000000000000000000000000000000000000008e7f0000000000000000000000000000000000000000000000000000000000000000613279565b9050600087610e8a578c610e8e565b6000195b60408051636eb1769f60e11b8152336004820152306024820152905191925082916001600160a01b0385169163dd62ed3e916044808301926020929190829003018186803b158015610edf57600080fd5b505afa158015610ef3573d6000803e3d6000fd5b505050506040513d6020811015610f0957600080fd5b505114610f9b576040805163d505accf60e01b815233600482015230602482015260448101839052606481018b905260ff8916608482015260a4810188905260c4810187905290516001600160a01b0384169163d505accf9160e480830192600092919082900301818387803b158015610f8257600080fd5b505af1158015610f96573d6000803e3d6000fd5b505050505b610fa98e8e8e8e8e8e612b93565b909f909e509c50505050505050505050505050565b60608142811015611000576040805162461bcd60e51b81526020600482015260076024820152661156141254915160ca1b604482015290519081900360640190fd5b61105e7f00000000000000000000000000000000000000000000000000000000000000008988888080602002602001604051908101604052809392919081815260200183836020028082843760009201919091525061333492505050565b9150868260018451038151811061107157fe5b602002602001015110156110ba576040805162461bcd60e51b815260206004820152601a6024820152600080516020614566833981519152604482015290519081900360640190fd5b611158868660008181106110ca57fe5b905060200201356001600160a01b03163361113e7f00000000000000000000000000000000000000000000000000000000000000008a8a600081811061110c57fe5b905060200201356001600160a01b03168b8b600181811061112957fe5b905060200201356001600160a01b0316613279565b8560008151811061114b57fe5b6020026020010151613458565b611197828787808060200260200160405190810160405280939291908181526020018383602002808284376000920191909152508992506135b5915050565b509695505050505050565b80428110156111e2576040805162461bcd60e51b81526020600482015260076024820152661156141254915160ca1b604482015290519081900360640190fd5b7f00000000000000000000000000000000000000000000000000000000000000006001600160a01b03168585600081811061121957fe5b905060200201356001600160a01b03166001600160a01b031614611273576040805162461bcd60e51b815260206004820152600c60248201526b0929cac82989288bea082a8960a31b604482015290519081900360640190fd5b60003490507f00000000000000000000000000000000000000000000000000000000000000006001600160a01b031663d0e30db0826040518263ffffffff1660e01b81526004016000604051808303818588803b1580156112d357600080fd5b505af11580156112e7573d6000803e3d6000fd5b50505050507f00000000000000000000000000000000000000000000000000000000000000006001600160a01b031663a9059cbb6113697f00000000000000000000000000000000000000000000000000000000000000008989600081811061134c57fe5b905060200201356001600160a01b03168a8a600181811061112957fe5b836040518363ffffffff1660e01b815260040180836001600160a01b0316815260200182815260200192505050602060405180830381600087803b1580156113b057600080fd5b505af11580156113c4573d6000803e3d6000fd5b505050506040513d60208110156113da57600080fd5b50516113e257fe5b6000868660001981018181106113f457fe5b905060200201356001600160a01b03166001600160a01b03166370a08231866040518263ffffffff1660e01b815260040180826001600160a01b0316815260200191505060206040518083038186803b15801561145057600080fd5b505afa158015611464573d6000803e3d6000fd5b505050506040513d602081101561147a57600080fd5b505160408051602089810282810182019093528982529293506114bc9290918a918a9182918501908490808284376000920191909152508992506137f2915050565b8761155f82898960001981018181106114d157fe5b905060200201356001600160a01b03166001600160a01b03166370a08231896040518263ffffffff1660e01b815260040180826001600160a01b0316815260200191505060206040518083038186803b15801561152d57600080fd5b505afa158015611541573d6000803e3d6000fd5b505050506040513d602081101561155757600080fd5b505190613af9565b10156115a0576040805162461bcd60e51b815260206004820152601a6024820152600080516020614566833981519152604482015290519081900360640190fd5b5050505050505050565b80428110156115ea576040805162461bcd60e51b81526020600482015260076024820152661156141254915160ca1b604482015290519081900360640190fd5b611642858560008181106115fa57fe5b905060200201356001600160a01b03163361163c7f00000000000000000000000000000000000000000000000000000000000000008989600081811061134c57fe5b8a613458565b60008585600019810181811061165457fe5b905060200201356001600160a01b03166001600160a01b03166370a08231856040518263ffffffff1660e01b815260040180826001600160a01b0316815260200191505060206040518083038186803b1580156116b057600080fd5b505afa1580156116c4573d6000803e3d6000fd5b505050506040513d60208110156116da57600080fd5b5051604080516020888102828101820190935288825292935061171c9290918991899182918501908490808284376000920191909152508892506137f2915050565b8661155f828888600019810181811061173157fe5b905060200201356001600160a01b03166001600160a01b03166370a08231886040518263ffffffff1660e01b815260040180826001600160a01b0316815260200191505060206040518083038186803b15801561152d57600080fd5b606081428110156117cf576040805162461bcd60e51b81526020600482015260076024820152661156141254915160ca1b604482015290519081900360640190fd5b6001600160a01b037f0000000000000000000000000000000000000000000000000000000000000000168686600019810181811061180957fe5b905060200201356001600160a01b03166001600160a01b031614611863576040805162461bcd60e51b815260206004820152600c60248201526b0929cac82989288bea082a8960a31b604482015290519081900360640190fd5b6118c17f00000000000000000000000000000000000000000000000000000000000000008988888080602002602001604051908101604052809392919081815260200183836020028082843760009201919091525061333492505050565b915086826001845103815181106118d457fe5b6020026020010151101561191d576040805162461bcd60e51b815260206004820152601a6024820152600080516020614566833981519152604482015290519081900360640190fd5b61192d868660008181106110ca57fe5b61196c828787808060200260200160405190810160405280939291908181526020018383602002808284376000920191909152503092506135b5915050565b7f00000000000000000000000000000000000000000000000000000000000000006001600160a01b0316632e1a7d4d836001855103815181106119ab57fe5b60200260200101516040518263ffffffff1660e01b815260040180828152602001915050600060405180830381600087803b1580156119e957600080fd5b505af11580156119fd573d6000803e3d6000fd5b505050506111978483600185510381518110611a1557fe5b6020026020010151613b49565b600080611a707f00000000000000000000000000000000000000000000000000000000000000008d7f0000000000000000000000000000000000000000000000000000000000000000613279565b9050600086611a7f578b611a83565b6000195b6040805163d505accf60e01b815233600482015230602482015260448101839052606481018b905260ff8916608482015260a4810188905260c4810187905290519192506001600160a01b0384169163d505accf9160e48082019260009290919082900301818387803b158015611af957600080fd5b505af1158015611b0d573d6000803e3d6000fd5b50505050611b1f8d8d8d8d8d8d612342565b9d9c50505050505050505050505050565b60608142811015611b72576040805162461bcd60e51b81526020600482015260076024820152661156141254915160ca1b604482015290519081900360640190fd5b7f00000000000000000000000000000000000000000000000000000000000000006001600160a01b031686866000818110611ba957fe5b905060200201356001600160a01b03166001600160a01b031614611c03576040805162461bcd60e51b815260206004820152600c60248201526b0929cac82989288bea082a8960a31b604482015290519081900360640190fd5b611c617f00000000000000000000000000000000000000000000000000000000000000008888888080602002602001604051908101604052809392919081815260200183836020028082843760009201919091525061313f92505050565b91503482600081518110611c7157fe5b60200260200101511115611cc5576040805162461bcd60e51b8152602060048201526016602482015275115610d154d4d2559157d25394155517d05353d5539560521b604482015290519081900360640190fd5b7f00000000000000000000000000000000000000000000000000000000000000006001600160a01b031663d0e30db083600081518110611d0157fe5b60200260200101516040518263ffffffff1660e01b81526004016000604051808303818588803b158015611d3457600080fd5b505af1158015611d48573d6000803e3d6000fd5b50505050507f00000000000000000000000000000000000000000000000000000000000000006001600160a01b031663a9059cbb611dad7f00000000000000000000000000000000000000000000000000000000000000008989600081811061134c57fe5b84600081518110611dba57fe5b60200260200101516040518363ffffffff1660e01b815260040180836001600160a01b0316815260200182815260200192505050602060405180830381600087803b158015611e0857600080fd5b505af1158015611e1c573d6000803e3d6000fd5b505050506040513d6020811015611e3257600080fd5b5051611e3a57fe5b611e79828787808060200260200160405190810160405280939291908181526020018383602002808284376000920191909152508992506135b5915050565b81600081518110611e8657fe5b6020026020010151341115611eb557611eb53383600081518110611ea657fe5b60200260200101513403613b49565b5095945050505050565b6000610c74848484613c3c565b60608142811015611f0e576040805162461bcd60e51b81526020600482015260076024820152661156141254915160ca1b604482015290519081900360640190fd5b611f6c7f00000000000000000000000000000000000000000000000000000000000000008988888080602002602001604051908101604052809392919081815260200183836020028082843760009201919091525061313f92505050565b91508682600081518110611f7c57fe5b602002602001015111156110ba576040805162461bcd60e51b8152602060048201526016602482015275115610d154d4d2559157d25394155517d05353d5539560521b604482015290519081900360640190fd5b7f000000000000000000000000000000000000000000000000000000000000000081565b60608142811015612036576040805162461bcd60e51b81526020600482015260076024820152661156141254915160ca1b604482015290519081900360640190fd5b7f00000000000000000000000000000000000000000000000000000000000000006001600160a01b03168686600081811061206d57fe5b905060200201356001600160a01b03166001600160a01b0316146120c7576040805162461bcd60e51b815260206004820152600c60248201526b0929cac82989288bea082a8960a31b604482015290519081900360640190fd5b6121257f00000000000000000000000000000000000000000000000000000000000000003488888080602002602001604051908101604052809392919081815260200183836020028082843760009201919091525061333492505050565b9150868260018451038151811061213857fe5b60200260200101511015612181576040805162461bcd60e51b815260206004820152601a6024820152600080516020614566833981519152604482015290519081900360640190fd5b7f00000000000000000000000000000000000000000000000000000000000000006001600160a01b031663d0e30db0836000815181106121bd57fe5b60200260200101516040518263ffffffff1660e01b81526004016000604051808303818588803b1580156121f057600080fd5b505af1158015612204573d6000803e3d6000fd5b50505050507f00000000000000000000000000000000000000000000000000000000000000006001600160a01b031663a9059cbb6122697f00000000000000000000000000000000000000000000000000000000000000008989600081811061134c57fe5b8460008151811061227657fe5b60200260200101516040518363ffffffff1660e01b815260040180836001600160a01b0316815260200182815260200192505050602060405180830381600087803b1580156122c457600080fd5b505af11580156122d8573d6000803e3d6000fd5b505050506040513d60208110156122ee57600080fd5b50516122f657fe5b611eb5828787808060200260200160405190810160405280939291908181526020018383602002808284376000920191909152508992506135b5915050565b6000610c74848484613d14565b60008142811015612384576040805162461bcd60e51b81526020600482015260076024820152661156141254915160ca1b604482015290519081900360640190fd5b6123b3887f000000000000000000000000000000000000000000000000000000000000000089898930896124c4565b90508092505061243c88858a6001600160a01b03166370a08231306040518263ffffffff1660e01b815260040180826001600160a01b0316815260200191505060206040518083038186803b15801561240b57600080fd5b505afa15801561241f573d6000803e3d6000fd5b505050506040513d602081101561243557600080fd5b5051613dba565b7f00000000000000000000000000000000000000000000000000000000000000006001600160a01b0316632e1a7d4d836040518263ffffffff1660e01b815260040180828152602001915050600060405180830381600087803b1580156124a257600080fd5b505af11580156124b6573d6000803e3d6000fd5b505050506111978483613b49565b6000808242811015612507576040805162461bcd60e51b81526020600482015260076024820152661156141254915160ca1b604482015290519081900360640190fd5b60006125347f00000000000000000000000000000000000000000000000000000000000000008c8c613279565b604080516323b872dd60e01b81523360048201526001600160a01b03831660248201819052604482018d9052915192935090916323b872dd916064808201926020929091908290030181600087803b15801561258f57600080fd5b505af11580156125a3573d6000803e3d6000fd5b505050506040513d60208110156125b957600080fd5b50506040805163226bf2d160e21b81526001600160a01b03888116600483015282516000938493928616926389afcb44926024808301939282900301818787803b15801561260657600080fd5b505af115801561261a573d6000803e3d6000fd5b505050506040513d604081101561263057600080fd5b5080516020909101519092509050600061264a8e8e613f0e565b509050806001600160a01b03168e6001600160a01b03161461266d578183612670565b82825b90975095508a8710156126c2576040805162461bcd60e51b8152602060048201526015602482015274125394d551919250d251539517d057d05353d55395605a1b604482015290519081900360640190fd5b8986101561270f576040805162461bcd60e51b8152602060048201526015602482015274125394d551919250d251539517d097d05353d55395605a1b604482015290519081900360640190fd5b505050505097509795505050505050565b7f000000000000000000000000000000000000000000000000000000000000000081565b6060610ca97f00000000000000000000000000000000000000000000000000000000000000008484613334565b80428110156127b1576040805162461bcd60e51b81526020600482015260076024820152661156141254915160ca1b604482015290519081900360640190fd5b6001600160a01b037f000000000000000000000000000000000000000000000000000000000000000016858560001981018181106127eb57fe5b905060200201356001600160a01b03166001600160a01b031614612845576040805162461bcd60e51b815260206004820152600c60248201526b0929cac82989288bea082a8960a31b604482015290519081900360640190fd5b612855858560008181106115fa57fe5b6128938585808060200260200160405190810160405280939291908181526020018383602002808284376000920191909152503092506137f2915050565b60007f00000000000000000000000000000000000000000000000000000000000000006001600160a01b03166370a08231306040518263ffffffff1660e01b815260040180826001600160a01b0316815260200191505060206040518083038186803b15801561290257600080fd5b505afa158015612916573d6000803e3d6000fd5b505050506040513d602081101561292c57600080fd5b5051905086811015612973576040805162461bcd60e51b815260206004820152601a6024820152600080516020614566833981519152604482015290519081900360640190fd5b7f00000000000000000000000000000000000000000000000000000000000000006001600160a01b0316632e1a7d4d826040518263ffffffff1660e01b815260040180828152602001915050600060405180830381600087803b1580156129d957600080fd5b505af11580156129ed573d6000803e3d6000fd5b505050506115a08482613b49565b60608142811015612a3d576040805162461bcd60e51b81526020600482015260076024820152661156141254915160ca1b604482015290519081900360640190fd5b6001600160a01b037f00000000000000000000000000000000000000000000000000000000000000001686866000198101818110612a7757fe5b905060200201356001600160a01b03166001600160a01b031614612ad1576040805162461bcd60e51b815260206004820152600c60248201526b0929cac82989288bea082a8960a31b604482015290519081900360640190fd5b612b2f7f00000000000000000000000000000000000000000000000000000000000000008988888080602002602001604051908101604052809392919081815260200183836020028082843760009201919091525061313f92505050565b91508682600081518110612b3f57fe5b6020026020010151111561191d576040805162461bcd60e51b8152602060048201526016602482015275115610d154d4d2559157d25394155517d05353d5539560521b604482015290519081900360640190fd5b6000808242811015612bd6576040805162461bcd60e51b81526020600482015260076024820152661156141254915160ca1b604482015290519081900360640190fd5b612c05897f00000000000000000000000000000000000000000000000000000000000000008a8a8a308a6124c4565b9093509150612c15898685613dba565b7f00000000000000000000000000000000000000000000000000000000000000006001600160a01b0316632e1a7d4d836040518263ffffffff1660e01b815260040180828152602001915050600060405180830381600087803b158015612c7b57600080fd5b505af1158015612c8f573d6000803e3d6000fd5b50505050612c9d8583613b49565b50965096945050505050565b60008060008342811015612cee576040805162461bcd60e51b81526020600482015260076024820152661156141254915160ca1b604482015290519081900360640190fd5b612cfc8c8c8c8c8c8c613fec565b90945092506000612d2e7f00000000000000000000000000000000000000000000000000000000000000008e8e613279565b9050612d3c8d338388613458565b612d488c338387613458565b806001600160a01b0316636a627842886040518263ffffffff1660e01b815260040180826001600160a01b03168152602001915050602060405180830381600087803b158015612d9757600080fd5b505af1158015612dab573d6000803e3d6000fd5b505050506040513d6020811015612dc157600080fd5b5051949d939c50939a509198505050505050505050565b60008060008342811015612e1d576040805162461bcd60e51b81526020600482015260076024820152661156141254915160ca1b604482015290519081900360640190fd5b612e4b8a7f00000000000000000000000000000000000000000000000000000000000000008b348c8c613fec565b90945092506000612e9d7f00000000000000000000000000000000000000000000000000000000000000008c7f0000000000000000000000000000000000000000000000000000000000000000613279565b9050612eab8b338388613458565b7f00000000000000000000000000000000000000000000000000000000000000006001600160a01b031663d0e30db0856040518263ffffffff1660e01b81526004016000604051808303818588803b158015612f0657600080fd5b505af1158015612f1a573d6000803e3d6000fd5b50505050507f00000000000000000000000000000000000000000000000000000000000000006001600160a01b031663a9059cbb82866040518363ffffffff1660e01b815260040180836001600160a01b0316815260200182815260200192505050602060405180830381600087803b158015612f9657600080fd5b505af1158015612faa573d6000803e3d6000fd5b505050506040513d6020811015612fc057600080fd5b5051612fc857fe5b806001600160a01b0316636a627842886040518263ffffffff1660e01b815260040180826001600160a01b03168152602001915050602060405180830381600087803b15801561301757600080fd5b505af115801561302b573d6000803e3d6000fd5b505050506040513d602081101561304157600080fd5b50519250348410156130595761305933853403613b49565b505096509650969350505050565b60008084116130a75760405162461bcd60e51b815260040180806020018281038252602c8152602001806144c7602c913960400191505060405180910390fd5b6000831180156130b75750600082115b6130f25760405162461bcd60e51b815260040180806020018281038252602981526020018061449e6029913960400191505060405180910390fd5b6000613100856103e5614299565b9050600061310e8285614299565b9050600061312883613122886103e8614299565b906142fc565b905080828161313357fe5b04979650505050505050565b6060600282511015613186576040805162461bcd60e51b815260206004820152601f60248201526000805160206144f3833981519152604482015290519081900360640190fd5b81516001600160401b038111801561319d57600080fd5b506040519080825280602002602001820160405280156131c7578160200160208202803683370190505b50905082816001835103815181106131db57fe5b60209081029190910101528151600019015b80156132715760008061322a8786600186038151811061320957fe5b602002602001015187868151811061321d57fe5b602002602001015161434b565b9150915061324c84848151811061323d57fe5b60200260200101518383613c3c565b84600185038151811061325b57fe5b60209081029190910101525050600019016131ed565b509392505050565b60008060006132888585613f0e565b604080516001600160601b0319606094851b811660208084019190915293851b81166034830152825160288184030181526048830184528051908501206001600160f81b031960688401529a90941b9093166069840152607d8301989098527f1e1ea7ac469a8b713abcf623ce528b00c7f756015528db479889c204725270da609d808401919091528851808403909101815260bd909201909752805196019590952095945050505050565b606060028251101561337b576040805162461bcd60e51b815260206004820152601f60248201526000805160206144f3833981519152604482015290519081900360640190fd5b81516001600160401b038111801561339257600080fd5b506040519080825280602002602001820160405280156133bc578160200160208202803683370190505b50905082816000815181106133cd57fe5b60200260200101818152505060005b600183510381101561327157600080613412878685815181106133fb57fe5b602002602001015187866001018151811061321d57fe5b9150915061343484848151811061342557fe5b60200260200101518383613067565b84846001018151811061344357fe5b602090810291909101015250506001016133dc565b604080516001600160a01b0385811660248301528481166044830152606480830185905283518084039091018152608490920183526020820180516001600160e01b03166323b872dd60e01b17815292518251600094606094938a169392918291908083835b602083106134dd5780518252601f1990920191602091820191016134be565b6001836020036101000a0380198251168184511680821785525050505050509050019150506000604051808303816000865af19150503d806000811461353f576040519150601f19603f3d011682016040523d82523d6000602084013e613544565b606091505b5091509150818015613572575080511580613572575080806020019051602081101561356f57600080fd5b50515b6135ad5760405162461bcd60e51b81526004018080602001828103825260318152602001806144396031913960400191505060405180910390fd5b505050505050565b60005b60018351038110156137ec576000808483815181106135d357fe5b60200260200101518584600101815181106135ea57fe5b60200260200101519150915060006136028383613f0e565b509050600087856001018151811061361657fe5b60200260200101519050600080836001600160a01b0316866001600160a01b03161461364457826000613648565b6000835b91509150600060028a5103881061365f57886136a0565b6136a07f0000000000000000000000000000000000000000000000000000000000000000878c8b6002018151811061369357fe5b6020026020010151613279565b90506136cd7f00000000000000000000000000000000000000000000000000000000000000008888613279565b6001600160a01b031663022c0d9f84848460006040519080825280601f01601f19166020018201604052801561370a576020820181803683370190505b506040518563ffffffff1660e01b815260040180858152602001848152602001836001600160a01b0316815260200180602001828103825283818151815260200191508051906020019080838360005b8381101561377257818101518382015260200161375a565b50505050905090810190601f16801561379f5780820380516001836020036101000a031916815260200191505b5095505050505050600060405180830381600087803b1580156137c157600080fd5b505af11580156137d5573d6000803e3d6000fd5b5050600190990198506135b8975050505050505050565b50505050565b60005b6001835103811015613af45760008084838151811061381057fe5b602002602001015185846001018151811061382757fe5b602002602001015191509150600061383f8383613f0e565b509050600061386f7f00000000000000000000000000000000000000000000000000000000000000008585613279565b9050600080600080846001600160a01b0316630902f1ac6040518163ffffffff1660e01b815260040160606040518083038186803b1580156138b057600080fd5b505afa1580156138c4573d6000803e3d6000fd5b505050506040513d60608110156138da57600080fd5b5080516020909101516001600160701b0391821693501690506000806001600160a01b038a811690891614613910578284613913565b83835b91509150613968828b6001600160a01b03166370a082318a6040518263ffffffff1660e01b815260040180826001600160a01b0316815260200191505060206040518083038186803b15801561152d57600080fd5b9550613975868383613067565b945050505050600080856001600160a01b0316886001600160a01b03161461399f578260006139a3565b6000835b91509150600060028c51038a106139ba578a6139ee565b6139ee7f0000000000000000000000000000000000000000000000000000000000000000898e8d6002018151811061369357fe5b604080516000808252602082019283905263022c0d9f60e01b835260248201878152604483018790526001600160a01b038086166064850152608060848501908152845160a48601819052969750908c169563022c0d9f958a958a958a9591949193919260c486019290918190849084905b83811015613a78578181015183820152602001613a60565b50505050905090810190601f168015613aa55780820380516001836020036101000a031916815260200191505b5095505050505050600060405180830381600087803b158015613ac757600080fd5b505af1158015613adb573d6000803e3d6000fd5b50506001909b019a506137f59950505050505050505050565b505050565b80820382811115610cac576040805162461bcd60e51b815260206004820152601560248201527464732d6d6174682d7375622d756e646572666c6f7760581b604482015290519081900360640190fd5b604080516000808252602082019092526001600160a01b0384169083906040518082805190602001908083835b60208310613b955780518252601f199092019160209182019101613b76565b6001836020036101000a03801982511681845116808217855250505050505090500191505060006040518083038185875af1925050503d8060008114613bf7576040519150601f19603f3d011682016040523d82523d6000602084013e613bfc565b606091505b5050905080613af45760405162461bcd60e51b815260040180806020018281038252603481526020018061446a6034913960400191505060405180910390fd5b6000808411613c7c5760405162461bcd60e51b815260040180806020018281038252602d815260200180614513602d913960400191505060405180910390fd5b600083118015613c8c5750600082115b613cc75760405162461bcd60e51b815260040180806020018281038252602981526020018061449e6029913960400191505060405180910390fd5b6000613cdf6103e8613cd98688614299565b90614299565b90506000613cf36103e5613cd98689613af9565b9050613d0a6001828481613d0357fe5b04906142fc565b9695505050505050565b6000808411613d545760405162461bcd60e51b81526004018080602001828103825260268152602001806145406026913960400191505060405180910390fd5b600083118015613d645750600082115b613d9f5760405162461bcd60e51b815260040180806020018281038252602981526020018061449e6029913960400191505060405180910390fd5b82613daa8584614299565b81613db157fe5b04949350505050565b604080516001600160a01b038481166024830152604480830185905283518084039091018152606490920183526020820180516001600160e01b031663a9059cbb60e01b178152925182516000946060949389169392918291908083835b60208310613e375780518252601f199092019160209182019101613e18565b6001836020036101000a0380198251168184511680821785525050505050509050019150506000604051808303816000865af19150503d8060008114613e99576040519150601f19603f3d011682016040523d82523d6000602084013e613e9e565b606091505b5091509150818015613ecc575080511580613ecc5750808060200190516020811015613ec957600080fd5b50515b613f075760405162461bcd60e51b815260040180806020018281038252602d815260200180614586602d913960400191505060405180910390fd5b5050505050565b600080826001600160a01b0316846001600160a01b03161415613f625760405162461bcd60e51b81526004018080602001828103825260268152602001806144136026913960400191505060405180910390fd5b826001600160a01b0316846001600160a01b031610613f82578284613f85565b83835b90925090506001600160a01b038216613fe5576040805162461bcd60e51b815260206004820152601f60248201527f506570657377617056324c6962726172793a205a45524f5f4144445245535300604482015290519081900360640190fd5b9250929050565b60008060006001600160a01b03167f00000000000000000000000000000000000000000000000000000000000000006001600160a01b031663e6a439058a8a6040518363ffffffff1660e01b815260040180836001600160a01b03168152602001826001600160a01b031681526020019250505060206040518083038186803b15801561407857600080fd5b505afa15801561408c573d6000803e3d6000fd5b505050506040513d60208110156140a257600080fd5b50516001600160a01b03161415614160577f00000000000000000000000000000000000000000000000000000000000000006001600160a01b031663c9c6539689896040518363ffffffff1660e01b815260040180836001600160a01b03168152602001826001600160a01b0316815260200192505050602060405180830381600087803b15801561413357600080fd5b505af1158015614147573d6000803e3d6000fd5b505050506040513d602081101561415d57600080fd5b50505b60008061418e7f00000000000000000000000000000000000000000000000000000000000000008b8b61434b565b915091508160001480156141a0575080155b156141b05787935086925061428c565b60006141bd898484613d14565b905087811161421e5785811015614213576040805162461bcd60e51b8152602060048201526015602482015274125394d551919250d251539517d097d05353d55395605a1b604482015290519081900360640190fd5b88945092508261428a565b600061422b898486613d14565b90508981111561423757fe5b87811015614284576040805162461bcd60e51b8152602060048201526015602482015274125394d551919250d251539517d057d05353d55395605a1b604482015290519081900360640190fd5b94508793505b505b5050965096945050505050565b60008115806142b4575050808202828282816142b157fe5b04145b610cac576040805162461bcd60e51b815260206004820152601460248201527364732d6d6174682d6d756c2d6f766572666c6f7760601b604482015290519081900360640190fd5b80820182811015610cac576040805162461bcd60e51b815260206004820152601460248201527364732d6d6174682d6164642d6f766572666c6f7760601b604482015290519081900360640190fd5b600080600061435a8585613f0e565b50905060008061436b888888613279565b6001600160a01b0316630902f1ac6040518163ffffffff1660e01b815260040160606040518083038186803b1580156143a357600080fd5b505afa1580156143b7573d6000803e3d6000fd5b505050506040513d60608110156143cd57600080fd5b5080516020909101516001600160701b0391821693501690506001600160a01b0387811690841614614400578082614403565b81815b9099909850965050505050505056fe506570657377617056324c6962726172793a204944454e544943414c5f4144445245535345535472616e7366657248656c7065723a3a7472616e7366657246726f6d3a207472616e7366657246726f6d206661696c65645472616e7366657248656c7065723a3a736166655472616e736665724554483a20455448207472616e73666572206661696c6564506570657377617056324c6962726172793a20494e53554646494349454e545f4c4951554944495459506570657377617056324c6962726172793a20494e53554646494349454e545f494e5055545f414d4f554e54506570657377617056324c6962726172793a20494e56414c49445f5041544800506570657377617056324c6962726172793a20494e53554646494349454e545f4f55545055545f414d4f554e54506570657377617056324c6962726172793a20494e53554646494349454e545f414d4f554e54494e53554646494349454e545f4f55545055545f414d4f554e540000000000005472616e7366657248656c7065723a3a736166655472616e736665723a207472616e73666572206661696c6564a2646970667358221220517414f6b6f922a5eb6fd71296d889cb0a4a3bd22821a93455660cf0c2f4137f64736f6c634300060c0033",
  "immutableReferences": {
    "5525": [
      {
        "length": 32,
        "start": 3203
      },
      {
        "length": 32,
        "start": 3260
      },
      {
        "length": 32,
        "start": 3637
      },
      {
        "length": 32,
        "start": 4101
      },
      {
        "length": 32,
        "start": 4320
      },
      {
        "length": 32,
        "start": 4896
      },
      {
        "length": 32,
        "start": 5648
      },
      {
        "length": 32,
        "start": 6248
      },
      {
        "length": 32,
        "start": 6698
      },
      {
        "length": 32,
        "start": 7176
      },
      {
        "length": 32,
        "start": 7553
      },
      {
        "length": 32,
        "start": 7955
      },
      {
        "length": 32,
        "start": 8396
      },
      {
        "length": 32,
        "start": 8765
      },
      {
        "length": 32,
        "start": 9486
      },
      {
        "length": 32,
        "start": 10018
      },
      {
        "length": 32,
        "start": 10059
      },
      {
        "length": 32,
        "start": 10966
      },
      {
        "length": 32,
        "start": 11528
      },
      {
        "length": 32,
        "start": 11863
      },
      {
        "length": 32,
        "start": 13924
      },
      {
        "length": 32,
        "start": 13991
      },
      {
        "length": 32,
        "start": 14409
      },
      {
        "length": 32,
        "start": 14783
      },
      {
        "length": 32,
        "start": 16380
      },
      {
        "length": 32,
        "start": 16565
      },
      {
        "length": 32,
        "start": 16744
      }
    ],
    "5528": [
      {
        "length": 32,
        "start": 303
      },
      {
        "length": 32,
        "start": 3671
      },
      {
        "length": 32,
        "start": 4580
      },
      {
        "length": 32,
        "start": 4730
      },
      {
        "length": 32,
        "start": 4846
      },
      {
        "length": 32,
        "start": 6105
      },
      {
        "length": 32,
        "start": 6510
      },
      {
        "length": 32,
        "start": 6732
      },
      {
        "length": 32,
        "start": 7028
      },
      {
        "length": 32,
        "start": 7367
      },
      {
        "length": 32,
        "start": 7503
      },
      {
        "length": 32,
        "start": 8146
      },
      {
        "length": 32,
        "start": 8248
      },
      {
        "length": 32,
        "start": 8579
      },
      {
        "length": 32,
        "start": 8715
      },
      {
        "length": 32,
        "start": 9098
      },
      {
        "length": 32,
        "start": 9278
      },
      {
        "length": 32,
        "start": 10171
      },
      {
        "length": 32,
        "start": 10391
      },
      {
        "length": 32,
        "start": 10613
      },
      {
        "length": 32,
        "start": 10823
      },
      {
        "length": 32,
        "start": 11228
      },
      {
        "length": 32,
        "start": 11287
      },
      {
        "length": 32,
        "start": 11811
      },
      {
        "length": 32,
        "start": 11897
      },
      {
        "length": 32,
        "start": 11949
      },
      {
        "length": 32,
        "start": 12065
      }
    ]
  },
  "source": "pragma solidity =0.6.12;\n\nimport '@uniswap/v2-core/contracts/interfaces/IUniswapV2Factory.sol';\nimport '@uniswap/lib/contracts/libraries/TransferHelper.sol';\n\nimport './interfaces/IPepeswapV2Router02.sol';\nimport './libraries/PepeswapV2Library.sol';\nimport './libraries/SafeMath.sol';\nimport './interfaces/IBEP20.sol';\nimport './interfaces/IWBNB.sol';\n\ncontract PepeswapV2Router02 is IPepeswapV2Router02 {\n    using SafeMath for uint;\n\n    address public immutable override factory;\n    address public immutable override WBNB;\n\n    modifier ensure(uint deadline) {\n        require(deadline >= block.timestamp, 'EXPIRED');\n        _;\n    }\n\n    constructor(address _factory, address _WBNB) public {\n        factory = _factory;\n        WBNB = _WBNB;\n    }\n\n    receive() external payable {\n        assert(msg.sender == WBNB); // only accept BNB via fallback from the WBNB contract\n    }\n\n    // **** ADD LIQUIDITY ****\n    function _addLiquidity(\n        address tokenA,\n        address tokenB,\n        uint amountADesired,\n        uint amountBDesired,\n        uint amountAMin,\n        uint amountBMin\n    ) internal virtual returns (uint amountA, uint amountB) {\n        // create the pair if it doesn't exist yet\n        if (IUniswapV2Factory(factory).getPair(tokenA, tokenB) == address(0)) {\n            IUniswapV2Factory(factory).createPair(tokenA, tokenB);\n        }\n        (uint reserveA, uint reserveB) = PepeswapV2Library.getReserves(factory, tokenA, tokenB);\n        if (reserveA == 0 && reserveB == 0) {\n            (amountA, amountB) = (amountADesired, amountBDesired);\n        } else {\n            uint amountBOptimal = PepeswapV2Library.quote(amountADesired, reserveA, reserveB);\n            if (amountBOptimal <= amountBDesired) {\n                require(amountBOptimal >= amountBMin, 'INSUFFICIENT_B_AMOUNT');\n                (amountA, amountB) = (amountADesired, amountBOptimal);\n            } else {\n                uint amountAOptimal = PepeswapV2Library.quote(amountBDesired, reserveB, reserveA);\n                assert(amountAOptimal <= amountADesired);\n                require(amountAOptimal >= amountAMin, 'INSUFFICIENT_A_AMOUNT');\n                (amountA, amountB) = (amountAOptimal, amountBDesired);\n            }\n        }\n    }\n    function addLiquidity(\n        address tokenA,\n        address tokenB,\n        uint amountADesired,\n        uint amountBDesired,\n        uint amountAMin,\n        uint amountBMin,\n        address to,\n        uint deadline\n    ) external virtual override ensure(deadline) returns (uint amountA, uint amountB, uint liquidity) {\n        (amountA, amountB) = _addLiquidity(tokenA, tokenB, amountADesired, amountBDesired, amountAMin, amountBMin);\n        address pair = PepeswapV2Library.pairFor(factory, tokenA, tokenB);\n        TransferHelper.safeTransferFrom(tokenA, msg.sender, pair, amountA);\n        TransferHelper.safeTransferFrom(tokenB, msg.sender, pair, amountB);\n        liquidity = IUniswapV2Pair(pair).mint(to);\n    }\n    function addLiquidityBNB(\n        address token,\n        uint amountTokenDesired,\n        uint amountTokenMin,\n        uint amountBNBMin,\n        address to,\n        uint deadline\n    ) external virtual override payable ensure(deadline) returns (uint amountToken, uint amountBNB, uint liquidity) {\n        (amountToken, amountBNB) = _addLiquidity(\n            token,\n            WBNB,\n            amountTokenDesired,\n            msg.value,\n            amountTokenMin,\n            amountBNBMin\n        );\n        address pair = PepeswapV2Library.pairFor(factory, token, WBNB);\n        TransferHelper.safeTransferFrom(token, msg.sender, pair, amountToken);\n        IWBNB(WBNB).deposit{value: amountBNB}();\n        assert(IWBNB(WBNB).transfer(pair, amountBNB));\n        liquidity = IUniswapV2Pair(pair).mint(to);\n        // refund dust BNB, if any\n        if (msg.value > amountBNB) TransferHelper.safeTransferETH(msg.sender, msg.value - amountBNB);\n    }\n\n    // **** REMOVE LIQUIDITY ****\n    function removeLiquidity(\n        address tokenA,\n        address tokenB,\n        uint liquidity,\n        uint amountAMin,\n        uint amountBMin,\n        address to,\n        uint deadline\n    ) public virtual override ensure(deadline) returns (uint amountA, uint amountB) {\n        address pair = PepeswapV2Library.pairFor(factory, tokenA, tokenB);\n        IUniswapV2Pair(pair).transferFrom(msg.sender, pair, liquidity); // send liquidity to pair\n        (uint amount0, uint amount1) = IUniswapV2Pair(pair).burn(to);\n        (address token0,) = PepeswapV2Library.sortTokens(tokenA, tokenB);\n        (amountA, amountB) = tokenA == token0 ? (amount0, amount1) : (amount1, amount0);\n        require(amountA >= amountAMin, 'INSUFFICIENT_A_AMOUNT');\n        require(amountB >= amountBMin, 'INSUFFICIENT_B_AMOUNT');\n    }\n    function removeLiquidityBNB(\n        address token,\n        uint liquidity,\n        uint amountTokenMin,\n        uint amountBNBMin,\n        address to,\n        uint deadline\n    ) public virtual override ensure(deadline) returns (uint amountToken, uint amountBNB) {\n        (amountToken, amountBNB) = removeLiquidity(\n            token,\n            WBNB,\n            liquidity,\n            amountTokenMin,\n            amountBNBMin,\n            address(this),\n            deadline\n        );\n        TransferHelper.safeTransfer(token, to, amountToken);\n        IWBNB(WBNB).withdraw(amountBNB);\n        TransferHelper.safeTransferETH(to, amountBNB);\n    }\n    function removeLiquidityWithPermit(\n        address tokenA,\n        address tokenB,\n        uint liquidity,\n        uint amountAMin,\n        uint amountBMin,\n        address to,\n        uint deadline,\n        bool approveMax, uint8 v, bytes32 r, bytes32 s\n    ) external virtual override returns (uint amountA, uint amountB) {\n        address pair = PepeswapV2Library.pairFor(factory, tokenA, tokenB);\n        uint value = approveMax ? uint(-1) : liquidity;\n        if (IUniswapV2Pair(pair).allowance(msg.sender,address(this)) != value) {\n            IUniswapV2Pair(pair).permit(msg.sender, address(this), value, deadline, v, r, s);\n        }\n        (amountA, amountB) = removeLiquidity(tokenA, tokenB, liquidity, amountAMin, amountBMin, to, deadline);\n    }\n    function removeLiquidityBNBWithPermit(\n        address token,\n        uint liquidity,\n        uint amountTokenMin,\n        uint amountBNBMin,\n        address to,\n        uint deadline,\n        bool approveMax, uint8 v, bytes32 r, bytes32 s\n    ) external virtual override returns (uint amountToken, uint amountBNB) {\n        address pair = PepeswapV2Library.pairFor(factory, token, WBNB);\n        uint value = approveMax ? uint(-1) : liquidity;\n        if (IUniswapV2Pair(pair).allowance(msg.sender,address(this)) != value) {\n            IUniswapV2Pair(pair).permit(msg.sender, address(this), value, deadline, v, r, s);\n        }\n        (amountToken, amountBNB) = removeLiquidityBNB(token, liquidity, amountTokenMin, amountBNBMin, to, deadline);\n    }\n\n    // **** REMOVE LIQUIDITY (supporting fee-on-transfer tokens) ****\n    function removeLiquidityBNBSupportingFeeOnTransferTokens(\n        address token,\n        uint liquidity,\n        uint amountTokenMin,\n        uint amountBNBMin,\n        address to,\n        uint deadline\n    ) public virtual override ensure(deadline) returns (uint amountBNB) {\n        (, amountBNB) = removeLiquidity(\n            token,\n            WBNB,\n            liquidity,\n            amountTokenMin,\n            amountBNBMin,\n            address(this),\n            deadline\n        );\n        TransferHelper.safeTransfer(token, to, IBEP20(token).balanceOf(address(this)));\n        IWBNB(WBNB).withdraw(amountBNB);\n        TransferHelper.safeTransferETH(to, amountBNB);\n    }\n    function removeLiquidityBNBWithPermitSupportingFeeOnTransferTokens(\n        address token,\n        uint liquidity,\n        uint amountTokenMin,\n        uint amountBNBMin,\n        address to,\n        uint deadline,\n        bool approveMax, uint8 v, bytes32 r, bytes32 s\n    ) external virtual override returns (uint amountBNB) {\n        address pair = PepeswapV2Library.pairFor(factory, token, WBNB);\n        uint value = approveMax ? uint(-1) : liquidity;\n        IUniswapV2Pair(pair).permit(msg.sender, address(this), value, deadline, v, r, s);\n        amountBNB = removeLiquidityBNBSupportingFeeOnTransferTokens(\n            token, liquidity, amountTokenMin, amountBNBMin, to, deadline\n        );\n    }\n\n    // **** SWAP ****\n    // requires the initial amount to have already been sent to the first pair\n    function _swap(uint[] memory amounts, address[] memory path, address _to) internal virtual {\n        for (uint i; i < path.length - 1; i++) {\n            (address input, address output) = (path[i], path[i + 1]);\n            (address token0,) = PepeswapV2Library.sortTokens(input, output);\n            uint amountOut = amounts[i + 1];\n            (uint amount0Out, uint amount1Out) = input == token0 ? (uint(0), amountOut) : (amountOut, uint(0));\n            address to = i < path.length - 2 ? PepeswapV2Library.pairFor(factory, output, path[i + 2]) : _to;\n            IUniswapV2Pair(PepeswapV2Library.pairFor(factory, input, output)).swap(\n                amount0Out, amount1Out, to, new bytes(0)\n            );\n        }\n    }\n    function swapExactTokensForTokens(\n        uint amountIn,\n        uint amountOutMin,\n        address[] calldata path,\n        address to,\n        uint deadline\n    ) external virtual override ensure(deadline) returns (uint[] memory amounts) {\n        amounts = PepeswapV2Library.getAmountsOut(factory, amountIn, path);\n        require(amounts[amounts.length - 1] >= amountOutMin, 'INSUFFICIENT_OUTPUT_AMOUNT');\n        TransferHelper.safeTransferFrom(\n            path[0], msg.sender, PepeswapV2Library.pairFor(factory, path[0], path[1]), amounts[0]\n        );\n        _swap(amounts, path, to);\n    }\n    function swapTokensForExactTokens(\n        uint amountOut,\n        uint amountInMax,\n        address[] calldata path,\n        address to,\n        uint deadline\n    ) external virtual override ensure(deadline) returns (uint[] memory amounts) {\n        amounts = PepeswapV2Library.getAmountsIn(factory, amountOut, path);\n        require(amounts[0] <= amountInMax, 'EXCESSIVE_INPUT_AMOUNT');\n        TransferHelper.safeTransferFrom(\n            path[0], msg.sender, PepeswapV2Library.pairFor(factory, path[0], path[1]), amounts[0]\n        );\n        _swap(amounts, path, to);\n    }\n    function swapExactBNBForTokens(uint amountOutMin, address[] calldata path, address to, uint deadline)\n        external\n        virtual\n        override\n        payable\n        ensure(deadline)\n        returns (uint[] memory amounts)\n    {\n        require(path[0] == WBNB, 'INVALID_PATH');\n        amounts = PepeswapV2Library.getAmountsOut(factory, msg.value, path);\n        require(amounts[amounts.length - 1] >= amountOutMin, 'INSUFFICIENT_OUTPUT_AMOUNT');\n        IWBNB(WBNB).deposit{value: amounts[0]}();\n        assert(IWBNB(WBNB).transfer(PepeswapV2Library.pairFor(factory, path[0], path[1]), amounts[0]));\n        _swap(amounts, path, to);\n    }\n    function swapTokensForExactBNB(uint amountOut, uint amountInMax, address[] calldata path, address to, uint deadline)\n        external\n        virtual\n        override\n        ensure(deadline)\n        returns (uint[] memory amounts)\n    {\n        require(path[path.length - 1] == WBNB, 'INVALID_PATH');\n        amounts = PepeswapV2Library.getAmountsIn(factory, amountOut, path);\n        require(amounts[0] <= amountInMax, 'EXCESSIVE_INPUT_AMOUNT');\n        TransferHelper.safeTransferFrom(\n            path[0], msg.sender, PepeswapV2Library.pairFor(factory, path[0], path[1]), amounts[0]\n        );\n        _swap(amounts, path, address(this));\n        IWBNB(WBNB).withdraw(amounts[amounts.length - 1]);\n        TransferHelper.safeTransferETH(to, amounts[amounts.length - 1]);\n    }\n    function swapExactTokensForBNB(uint amountIn, uint amountOutMin, address[] calldata path, address to, uint deadline)\n        external\n        virtual\n        override\n        ensure(deadline)\n        returns (uint[] memory amounts)\n    {\n        require(path[path.length - 1] == WBNB, 'INVALID_PATH');\n        amounts = PepeswapV2Library.getAmountsOut(factory, amountIn, path);\n        require(amounts[amounts.length - 1] >= amountOutMin, 'INSUFFICIENT_OUTPUT_AMOUNT');\n        TransferHelper.safeTransferFrom(\n            path[0], msg.sender, PepeswapV2Library.pairFor(factory, path[0], path[1]), amounts[0]\n        );\n        _swap(amounts, path, address(this));\n        IWBNB(WBNB).withdraw(amounts[amounts.length - 1]);\n        TransferHelper.safeTransferETH(to, amounts[amounts.length - 1]);\n    }\n    function swapBNBForExactTokens(uint amountOut, address[] calldata path, address to, uint deadline)\n        external\n        virtual\n        override\n        payable\n        ensure(deadline)\n        returns (uint[] memory amounts)\n    {\n        require(path[0] == WBNB, 'INVALID_PATH');\n        amounts = PepeswapV2Library.getAmountsIn(factory, amountOut, path);\n        require(amounts[0] <= msg.value, 'EXCESSIVE_INPUT_AMOUNT');\n        IWBNB(WBNB).deposit{value: amounts[0]}();\n        assert(IWBNB(WBNB).transfer(PepeswapV2Library.pairFor(factory, path[0], path[1]), amounts[0]));\n        _swap(amounts, path, to);\n        // refund dust BNB, if any\n        if (msg.value > amounts[0]) TransferHelper.safeTransferETH(msg.sender, msg.value - amounts[0]);\n    }\n\n    // **** SWAP (supporting fee-on-transfer tokens) ****\n    // requires the initial amount to have already been sent to the first pair\n    function _swapSupportingFeeOnTransferTokens(address[] memory path, address _to) internal virtual {\n        for (uint i; i < path.length - 1; i++) {\n            (address input, address output) = (path[i], path[i + 1]);\n            (address token0,) = PepeswapV2Library.sortTokens(input, output);\n            IUniswapV2Pair pair = IUniswapV2Pair(PepeswapV2Library.pairFor(factory, input, output));\n            uint amountInput;\n            uint amountOutput;\n            { // scope to avoid stack too deep errors\n            (uint reserve0, uint reserve1,) = pair.getReserves();\n            (uint reserveInput, uint reserveOutput) = input == token0 ? (reserve0, reserve1) : (reserve1, reserve0);\n            amountInput = IBEP20(input).balanceOf(address(pair)).sub(reserveInput);\n            amountOutput = PepeswapV2Library.getAmountOut(amountInput, reserveInput, reserveOutput);\n            }\n            (uint amount0Out, uint amount1Out) = input == token0 ? (uint(0), amountOutput) : (amountOutput, uint(0));\n            address to = i < path.length - 2 ? PepeswapV2Library.pairFor(factory, output, path[i + 2]) : _to;\n            pair.swap(amount0Out, amount1Out, to, new bytes(0));\n        }\n    }\n    function swapExactTokensForTokensSupportingFeeOnTransferTokens(\n        uint amountIn,\n        uint amountOutMin,\n        address[] calldata path,\n        address to,\n        uint deadline\n    ) external virtual override ensure(deadline) {\n        TransferHelper.safeTransferFrom(\n            path[0], msg.sender, PepeswapV2Library.pairFor(factory, path[0], path[1]), amountIn\n        );\n        uint balanceBefore = IBEP20(path[path.length - 1]).balanceOf(to);\n        _swapSupportingFeeOnTransferTokens(path, to);\n        require(\n            IBEP20(path[path.length - 1]).balanceOf(to).sub(balanceBefore) >= amountOutMin,\n            'INSUFFICIENT_OUTPUT_AMOUNT'\n        );\n    }\n    function swapExactBNBForTokensSupportingFeeOnTransferTokens(\n        uint amountOutMin,\n        address[] calldata path,\n        address to,\n        uint deadline\n    )\n        external\n        virtual\n        override\n        payable\n        ensure(deadline)\n    {\n        require(path[0] == WBNB, 'INVALID_PATH');\n        uint amountIn = msg.value;\n        IWBNB(WBNB).deposit{value: amountIn}();\n        assert(IWBNB(WBNB).transfer(PepeswapV2Library.pairFor(factory, path[0], path[1]), amountIn));\n        uint balanceBefore = IBEP20(path[path.length - 1]).balanceOf(to);\n        _swapSupportingFeeOnTransferTokens(path, to);\n        require(\n            IBEP20(path[path.length - 1]).balanceOf(to).sub(balanceBefore) >= amountOutMin,\n            'INSUFFICIENT_OUTPUT_AMOUNT'\n        );\n    }\n    function swapExactTokensForBNBSupportingFeeOnTransferTokens(\n        uint amountIn,\n        uint amountOutMin,\n        address[] calldata path,\n        address to,\n        uint deadline\n    )\n        external\n        virtual\n        override\n        ensure(deadline)\n    {\n        require(path[path.length - 1] == WBNB, 'INVALID_PATH');\n        TransferHelper.safeTransferFrom(\n            path[0], msg.sender, PepeswapV2Library.pairFor(factory, path[0], path[1]), amountIn\n        );\n        _swapSupportingFeeOnTransferTokens(path, address(this));\n        uint amountOut = IBEP20(WBNB).balanceOf(address(this));\n        require(amountOut >= amountOutMin, 'INSUFFICIENT_OUTPUT_AMOUNT');\n        IWBNB(WBNB).withdraw(amountOut);\n        TransferHelper.safeTransferETH(to, amountOut);\n    }\n\n    // **** LIBRARY FUNCTIONS ****\n    function quote(uint amountA, uint reserveA, uint reserveB) public pure virtual override returns (uint amountB) {\n        return PepeswapV2Library.quote(amountA, reserveA, reserveB);\n    }\n\n    function getAmountOut(uint amountIn, uint reserveIn, uint reserveOut)\n        public\n        pure\n        virtual\n        override\n        returns (uint amountOut)\n    {\n        return PepeswapV2Library.getAmountOut(amountIn, reserveIn, reserveOut);\n    }\n\n    function getAmountIn(uint amountOut, uint reserveIn, uint reserveOut)\n        public\n        pure\n        virtual\n        override\n        returns (uint amountIn)\n    {\n        return PepeswapV2Library.getAmountIn(amountOut, reserveIn, reserveOut);\n    }\n\n    function getAmountsOut(uint amountIn, address[] memory path)\n        public\n        view\n        virtual\n        override\n        returns (uint[] memory amounts)\n    {\n        return PepeswapV2Library.getAmountsOut(factory, amountIn, path);\n    }\n\n    function getAmountsIn(uint amountOut, address[] memory path)\n        public\n        view\n        virtual\n        override\n        returns (uint[] memory amounts)\n    {\n        return PepeswapV2Library.getAmountsIn(factory, amountOut, path);\n    }\n}\n",
  "sourcePath": "/mnt/e/Project/pepe-swap/pepeswap-periphery/contracts/PepeswapV2Router02.sol",
  "compiler": {
    "name": "solc",
    "version": "0.6.12+commit.27d51765.Emscripten.clang"
  },
  "schemaVersion": "3.4.1",
  "updatedAt": "2021-07-12T17:06:51.568Z",
  "devdoc": {
    "kind": "dev",
    "methods": {},
    "version": 1
  },
  "userdoc": {
    "kind": "user",
    "methods": {},
    "version": 1
  }
}